:0B14680001080A01121E010B00C10266
:100F0600E4F5EBF5E3F5EA75E2FFF5ED75E5FF537C
:100F1600ECDF43E420C297D2B575A0FF75891012A5
:100F2600105D1213BA12098A7F0A7E0012139A12F2
:100F3600144A12145AAB0BAD12AF08120BE8E4FBBD
:100F4600FAFDFCFFFE1206EBA2029205121269D20E
:100F5600AFE52465167004E52365156002D203E546
:100F66002665187004E52565176002D203E5286535
:100F76000A7004E52765096002D203300325AB0A2F
:100F8600AA09AD16AC15AF18AE171206EBC203854B
:100F96000927850A28851725851826851523851688
:100FA6002480077F027E0012139AA204300201B346
:100FB600500BA2029205121269A2029204E5087071
:100FC60003750814E508C394154003750801E51276
:100FD6007003751232E512C3943340037512011281
:100FE600131F7F017E0012139A20A73D7F0A7E0001
:100FF60012139A20A73330020FC202D2B5D297E459
:10100600FD7FBE1200038010D202E50875F006A42B
:10101600FD7FF0120003C2B530A7FD7F037E0012EC
:1010260013D9A202920512126930A203020F577F4A
:101036000A7E0012139A30A203020F57050BE50B26
:10104600C394034003E4F50B30A2FDAB0BAD12AF26
:0710560008120BE8020F571E
:03000B00020D9251
:100D9200C0E0C0F0C083C082C0D075D000C000C027
:0D0DA20001C002C003C004C005C006C007A8
:100DAF00758C27758AFF05117F041212E68E218F2D
:100DBF0022E522250EF50EE521350DF50D7F0312E7
:100DCF0012E6EF2514F514EE3513F513E511643221
:100DDF006003020EEB050CAE0DAF0EFC7D3212065A
:100DEF0088D3ED9423EC9400AE0DAF0E7C007D32D2
:100DFF00400E120688EF2401F50EE43EF50D800734
:100E0F001206888E0D8F0EAE13AF147C007D32123A
:100E1F000688D3ED9423EC9400AE13AF147C007DC1
:100E2F0032400E120688EF2401F514E43EF51380CC
:100E3F00071206888E138F14300256B297AC0DAD81
:100E4F000EE41205A17BE17A7A7914783F120496A9
:100E5F00C004C005C006C007AC0FAD10E41205A159
:100E6F00D003D002D001D0001203A51205DA8E0FE5
:100E7F008F10D3E5109410E50F940E4014050AE57A
:100E8F000A7002050974F02510F51074F1350FF58D
:100E9F000FAC12E41205A67B717A3D79A47841124A
:100EAF0004961205DA8E218F22C3E5149522E513DD
:100EBF009521500DC202D2B5D297E4FD7FBE12002C
:100ECF0003850D17850E18851315851416750D00DE
:0C0EDF00750E00751300751400751100ED
:100EEB00D007D006D005D004D003D002D001D0005B
:0B0EFB00D0D0D082D083D0F0D0E03205
:10131F00A201300001B3502430A50F30A40C3001CE
:10132F000312135430000312137720A50F20A40CBF
:10133F00300003121354300103121377A2A5920049
:05134F00A2A49201229E
:10135400E50BB401020508E50875F006A4FD7FF06D
:10136400120003E50BB402020512AB0BAD12AF0879
:03137400020BE881
:10137700E50BB401021508E50875F005A4FD7FBE6D
:10138700120003E50BB402021512AB0BAD12AF0846
:03139700020BE85E
:0E145A00438901758C27758AFFD2A9D28C2296
:10139A00C28FD28EEF1FAC0670011E4C600D758D88
:1013AA00D4758BD5308FFDC28F80E9C28FC28E2251
:1013D900E4FDFCC3ED9FEC9E5013E4FBE4FA0ABA6A
:0D13E900F8FC0BBB0FF60DBD00010C80E6FB
:0113F60022D4
:080003008FD18DC175D9812256
:10144A0075E9FFE4F5E175948F7595FF7593902220
:1012E600E4FDFC5393F1EF25E044014293E593209E
:1012F600E0FBAF977C00AD07ED7E007802C333CEEE
:1013060033CED8F9AC0654FCFDE5965403FFEF4204
:0813160005530403AE04AF050A
:01131E0022AC
:10105D001214317F327E0012139A7F2C1213F77FF8
:10106D00F07E0012139A7F281213F77F011213F7E7
:10107D007F101213F77F0B1213F77F301213F77FC8
:10108D001D1213F77F321213F77F0E1213F77F40E5
:10109D001213F77F821213F77F421213F77F02129A
:1010AD0013F77F811213F77F431213F77F04121387
:1010BD00F77F831213F77F341213F77F8D1213F717
:1010CD007F2A1213F77F321213F77F551213F7E4AD
:1010DD00FF1213F77F561213F7E4FF1213F77F5722
:1010ED001213F77F9F1213F77F787E0012139A7FEA
:0410FD00510213F792
:1013F700C290C294C292D294E4FEC294EF33929206
:0C140700D294EF25E0FF0EBE08F0D2905A
:0114130022B6
:10141400C290C294D292D294E4FEC294EF339292D8
:0C142400D294EF25E0FF0EBE08F0D2903D
:011430002299
:08147400121414AF0502141458
:101431007F057E0012139AC2957F147E0012139AC3
:09144100D2957F147E0002139A7B
:0912AB00AE05AB06753D0F7D0F89
:1012B400AC077F421213F7EC2402FF1213F7EC245D
:1012C400022DFF1213F77F431213F7EB2404FF12CE
:1012D40013F7EB2404253DFF1213F77F017E000270
:0212E400139A5B
:0A11E3007D207BFF7A00792E7F103B
:0611ED008B2D8A2E892FD4
:1011F3001212ABE4FCAB2DAA2EA92F8C82758300AF
:1012030012065BFAE4FBEA30E7067DFF7FFF80040A
:101213007D1FE4FF121474EA25E0FA0BBB08E70C08
:03122300BC20D21A
:0112260022A5
:081227007BFF7A00792E7D2087
:06122F008B2D8A2E892F91
:101235001212ABE4FCAB2DAA2EA92F8C827583006C
:1012450012065BFAE4FBEA30E7067D1FE4FF800443
:101255007DFF7FFF121474EA25E0FA0BBB08E70C4B
:03126500BC20D2D8
:011268002263
:10118D00AF03EF75F010A4248EF9740235F0FA7BDD
:03119D00FF7F4889
:0811A0008B378A388939AE054E
:1011A800AB06753D0F7D071212B4E4FCAB37AA38C5
:1011B800A9398C8275830012065BFAE4FBEA30E7F2
:1011C800067DFF7FFF80047D1FE4FF121474EA256B
:0A11D800E0FA0BBB08E70CBC10D2D4
:0111E20022EA
:1013BA00753D7FE4FB7D7FFF1212B4E4FCE4FB7D04
:0E13CA001FE4FF1214740BBB80F50CBC80EF07
:0113D80022F2
:10098A007BFF7A00790EE4FD7F101211ED7BFF7A6E
:10099A0000792EE4FD7F201211ED7BFF7A00794E5B
:1009AA00E4FD7F301211ED7BFF7A00796EE4FD7F62
:1009BA00401211ED7BFF7A00798EE4FD7F5012110F
:1009CA00ED7BFF7A0079AEE4FD7F601211ED7BFFCB
:1009DA007A01790E7D10E4FF1211ED7BFF7A01791D
:1009EA002E7D107F101211ED7BFF7A03792E7D1078
:1009FA007F201211A07BFF7A01794E7D20E4FF123D
:100A0A0011ED1211E37BFF7A00792E7D207F2012EF
:100A1A0011ED7BFF7A0079EE7D207F301211ED7B9C
:100A2A00FF7A03792E7D207F401211A07BFF7A0383
:100A3A00793E7D207F581211A07BFF7A03795E7D73
:100A4A00207F681211A07BFF7A01796E7D30E4FF66
:100A5A001211ED7BFF7A01798E7D307F101211ED34
:100A6A007BFF7A00792E7D307F201211ED7BFF7A91
:100A7A000079CE7D307F301211ED7BFF7A03792E1B
:100A8A007D307F401211A07BFF7A03793E7D307F53
:100A9A00581211A07BFF7A03797E7D307F6812118C
:100AAA00A07BFF7A0179AE7D40E4FF1211ED7BFF56
:100ABA007A0179CE7D407F101211ED7BFF7A03799E
:100ACA002E7D407F201211A07BFF7A01794E7D5046
:100ADA00E4FF1211ED7D501211E57BFF7A00792EA9
:100AEA007D507F201211ED7BFF7A0079EE7D507FD9
:100AFA00301211ED7BFF7A03792E7D507F4012115F
:100B0A00A07BFF7A03793E7D507F501211A07BFFB4
:100B1A007A03795E7D507F681211A07BFF7A007993
:100B2A002E7D60E4FF1211ED7BFF7A02790E7D6063
:100B3A007F101211ED7BFF7A00792E7D607F2012E3
:100B4A0011ED7BFF7A0079CE7D607F301211ED7B4B
:100B5A00FF7A03792E7D607F401211A07BFF7A0312
:100B6A00793E7D607F501211A07BFF7A03797E7DEA
:100B7A00607F681211A07BFF7A0179EE7D70E4FF35
:100B8A001211ED7BFF7A01794E7D707F101211ED03
:100B9A007BFF7A00794E7D707F201211ED7BFF7A00
:100BAA0000796E7D707F301211ED7BFF7A03792E0A
:100BBA007D707F401211A07BFF7A03794E7D707F92
:100BCA00681211A07BFF7A03795E7D707F70121123
:0E0BDA00A07BFF7A03796E7D707F780211A0F8
:0C06EB008E298F2A8C2B8D2C8A2D8B2EB3
:1006F700AC29AD2AE41205A17BE17A7A7914784016
:100707001204961205DA8E298F2A7C007D0A1206BA
:1007170088D3ED9407EC9400400B740A252AF52A38
:10072700E43529F529AE29AF2A7C037DE81206882E
:10073700AB07AE29AF2A7C037DE81206887E007FCF
:1007470064CFCDCFCECCCE1206888F2FAE29AF2A5D
:100757007C007D641206887E007F0ACFCDCFCECC89
:10076700CE1206888F307D5012118DE52F75F0104F
:10077700A4248EF9740235F0FA7BFF7D507F58125E
:1007870011A0E53075F010A4248EF9740235F0FA43
:100797007BFF7D507F601211A0AC2BAD2CE41205BE
:1007A700A17B0A7AD7799B78401204961205DA8ED4
:1007B7002B8F2CAE29AF2A7C007D0A120688D3ED39
:1007C7009407EC9400400B740A252CF52CE4352B88
:1007D700F52BAE2BAF2C7C037DE8120688AB07AE5A
:1007E7002BAF2C7C037DE81206887E007F64CFCD7B
:1007F700CFCECCCE1206888F31AE2BAF2C7C007DAE
:10080700641206887E007F0ACFCDCFCECCCE1206EB
:10081700888F32AF03EF75F010A4248EF974023578
:10082700F0FA7BFF7D607F481211A0E53175F0106B
:10083700A4248EF9740235F0FA7BFF7D607F58128D
:1008470011A0E53275F010A4248EF9740235F0FA80
:100857007BFF7D607F601211A0AE2DAF2E7C277DC0
:1008670010120688AB07AE2DAF2E7C277D1012061F
:10087700887E037FE8CFCDCFCECCCE1206888F33CC
:10088700AE2DAF2E7C037DE81206887E007F64CFF5
:10089700CDCFCECCCE1206888F34AE2DAF2E7C00B6
:1008A7007D641206887E007F0ACFCDCFCECCCE12D4
:1008B70006888F35AE2DAF2E7C007D0A1206888DF7
:1008C70036EBD3940040527D7012118DE53375F0ED
:1008D70010A4248EF9740235F0FA7BFF7D707F50E7
:1008E7001211A07BFF7A03793E7D707F581211A009
:1008F700E53475F010A4248EF9740235F0FA7BFF05
:100907007D707F601211A0E53575F010A4248EF973
:10091700740235F0FA7BFF8062E53375F010A4248A
:100927008EF9740235F0FA7BFF7D707F481211A0B3
:10093700E53475F010A4248EF9740235F0FA7BFFC4
:100947007D707F501211A0E53575F010A4248EF943
:10095700740235F0FA7BFF7D707F581211A0E536DF
:1009670075F010A4248EF9740235F0FA7BFF7D70C0
:100977007F601211A07BFF7A03794E7D707F68122A
:0209870011A0BD
:01098900224B
:020BE8008B2957
:100BEA00EF75F06484E5F075F00A84FEEF75F00A9B
:100BFA008485F02AED75F06484E5F075F00A84F5D1
:100C0A002BED75F00A8485F02CAF06EF75F010A471
:100C1A00248EF9740235F0FA7BFF7D207F50121181
:100C2A00A0E52A75F010A4248EF9740235F0FA7B37
:100C3A00FF7D207F601211A0E52B75F010A4248E91
:100C4A00F9740235F0FA7BFF7D307F501211A0E56E
:100C5A002C75F010A4248EF9740235F0FA7BFF7D0E
:100C6A00307F601211A0E529705D7BFF7A01794E11
:100C7A007D20FF1211ED1211E37BFF7A00792E7DA0
:100C8A00207F201211ED7BFF7A0079EE7D207F30E4
:100C9A001211ED7BFF7A01796E7D30E4FF1211EDBE
:100CAA007BFF7A01798E7D307F101211ED7BFF7AFE
:100CBA0000792E7D307F201211ED7BFF7A0079CEEC
:100CCA007D307F301211EDE529640170577BFF7A80
:100CDA0001794E7D20FF12122F7F101212277F20DA
:100CEA001212277BFF7A0079EE7D207F3012122FB5
:100CFA007BFF7A01796E7D30E4FF1211ED7BFF7A7A
:100D0A0001798E7D307F101211ED7BFF7A00792EEA
:100D1A007D307F201211ED7BFF7A0079CE7D307F06
:100D2A00301211EDE5296402705D7BFF7A01794E7C
:100D3A007D20FF1211ED1211E37BFF7A00792E7DDF
:100D4A00207F201211ED7BFF7A0079EE7D207F3023
:100D5A001211ED7BFF7A01796E7D30E4FF12122FBA
:100D6A007BFF7A01798E7D307F1012122F7BFF7AFA
:100D7A0000792E7D307F2012122F7BFF7A0079CEE8
:070D8A007D307F3012122FB3
:010D9100223F
:101269007BFF3005247A01794E7D407F281211EDEC
:101279007BFF7A00792E7D407F381211ED7BFF7A52
:1012890002792E7D407F4880157A02794E7D407F14
:10129900281211ED7BFF7A02796E7D407F38121199
:0212A900ED2234
:10000E0000000800083C11C41D7421C83D7851C081
:10001E009C40707815C0187C13C0000000000000D2
:10002E0002000200020003E03E20222023202E20A8
:10003E0013C01E0002040204020401F800000000B6
:10004E000200010003F03C10200044C00820130001
:10005E000480086013DE6C4008400FC000000000F2
:10006E0001E00E200B4008C0070001FE7E0001E0FB
:10007E000F2009C0070001C00F0001F83E0000006C
:10008E000000000423841C8408A48AA44AA40AA4A1
:10009E001AA42AA423044484088C1004000000002F
:1000AE0000000040104808440040007833C0D040A3
:1000BE0010A01320111019D2160A0006000000001D
:1000CE00000000F01F0010001080108010F017804C
:1000DE0010A02090208040FC9F0000000000000037
:1000EE0000800040200010780780412022F003009D
:1000FE0010A012A012A224A2249E0800000000004C
:10010E00000020E01120012001206238A40021E02F
:10011E00222021402880314022300C1E0000000099
:10012E00000003F01C9013E00E0003F01E0003C04D
:10013E000440074004400740047C7F80000000001C
:10014E000040104008400440009C0EE0F1201020BA
:10015E001CA0244044A085101A08000600000000D0
:10016E0000000040104010402440447C7BC01040F2
:10017E002C78718004781988611801E00000000065
:10018E000100010001C00F0001E01F2011600F806F
:10019E000300058009403130C10E0100010000004E
:1001AE0000000880088008904888288028F80B8076
:1001BE0008C038A0C9100A180C0E08000000000074
:1001CE0002000200020003E01F0004800860123CDF
:1001DE0061000010010828842410430800F8000074
:1001EE00000000C00F400040108010801F00100063
:1001FE001000100410041004080C07F0000000009A
:10020E000000010021001100053005D047102D100F
:10021E00056215021402220241FC000000000000DB
:10022E0001000100010001F03F102110111011F02A
:10023E001F0001000100010001000100010000008B
:10024E00004008380BC010F0111031E0507C97843C
:10025E00147815C010401040104010C0004000002F
:10026E0000000100010001000100113011C0110059
:10027E0011001100110011FEFE0000000000000030
:10028E000000001C24222222222222221408000016
:10029E000000001030101010101010101800000088
:1002AE000000003C44440404080810223C000000F6
:1002BE000000001C2404040804020202241800009A
:1002CE00000000040C142424447E040404000000E6
:1002DE000000001C2020380C0404040468100000E8
:1002EE00000000081020203C444242242418000044
:1002FE000000003C44040408080808101000000028
:10030E000000003C2424241818244444241800001F
:10031E000000003C244446262C1404081020000043
:10032E00000000000000181800000000181800005F
:10033E0000000000000000000000000060600000EF
:10034E0000000000000000FE4949494949ED000047
:10035E000000001010182828243C444242E70000F8
:10036E00000000E7424242427E42424242E7000023
:10037E000000006224242428181818101000000011
:10038E0000000000103070FFFFFF70301000000002
:10039E00020646E86480F8E933E83360110460F041
:1003AE00ED33EC337009E8FCE9FDEAFEEBFF2204C5
:1003BE0060DED3EB9FEA9EE99DE8C2E78CF0C2F7C0
:1003CE0095F0400CE8CCF8E9CDF9EACEFAEBCFFB8C
:1003DE0012061185D0F05804700320D5B3E80470CE
:1003EE00075002B2D502065092D5EC0460F7E4CC69
:1003FE00C0E0C398F8603B94186008400DD0E0FB55
:10040E00020628E4FBFAC9FC8028E830E406E4C9B9
:10041E00FBE4CAFCE830E305E4C9CACBFCE85407A8
:10042E006010F8C3E913F9EA13FAEB13FBEC13FCB3
:10043E00D8F130F52FC3E49CFCEF9BFFEE9AFEED56
:10044E0099FDD0E0FBEF4E4D4C701222DB030206FD
:10045E004DEC2CFCEF33FFEE33FEED33FDED30E7CC
:10046E00EB020628EF2BFFEE3AFEED39FDD0E0FB56
:10047E0050130BBB0003020650ED13FDEE13FEEFFF
:08048E0013FFEC13FC02062829
:10049600EC4D6011E8497017ED33EC3304600DE460
:1004A600FCFFFEFD22E933E8330470F8020646122B
:1004B600061158046009E4CC24815006285009022C
:1004C600065028400302064DC0E0EB4A7044B9804E
:1004D60006D0E0FB02063CEF4E701CBD8008EBFF29
:1004E600EAFEE9FD80EBE98DF0A4FEE5F002057F6A
:1004F600E9CDF9EAFEEBFFEF89F0A4FCE5F0CE8941
:10050600F0A42EFFE435F0CD89F0A42DFEE435F0FD
:100516008067EF4E7005BD80D780C3EF8BF0A4AC2B
:10052600F0EE8BF0A42CFCE435F0F8EF8AF0A42C66
:10053600E5F038FCE433CB8DF0A42CFCE5F03BF879
:10054600EE8AF0A42CFCE5F038F8E433CF89F0A469
:100556002CFCE5F038CF3400CE89F0A42FFFE5F06F
:100566003EFEE433C98DF0A42EFEE5F039CD8AF0C7
:10057600A42FFFE5F03EFEE43DFD33D0E0FB50073F
:100586000BBB000F020650EC2CFCEF33FFEE33FEE4
:06059600ED33FD02062812
:10059C0075F020800E75F010800575F0087D007EDA
:1005AC00007F003392D530D5031206DDEC334010BA
:1005BC00EF33FFEE33FEED33FDEC33FCD5F0ED22E3
:0E05CC00E5F0247EA2D513CC92E7CDCEFF221F
:1005DA00EDD2E7CD33EC3392D524814006E4FFFE19
:1005EA00FDFC22FCE4CFCECDCC24E0501174FF8078
:1005FA00EDC3CC13CCCD13CDCE13CECF13CF047015
:07060A00F030D5DE0206DD31
:10061100E9D2E7C933E833F892D5EDD2E7CD33EC2F
:0706210033FC5002B2D522A8
:10062800EC30E7100FBF000C0EBE00080DBD000433
:100638000BEB6014A2D5EB13FCED92E7FD2274FFDF
:10064800FCFDFEFF22E480F8A2D574FF13FC7D8038
:03065800E480EF4C
:03000000021101E9
:0C110100787FE4F6D8FD75813D021148AE
:10065B00BB010CE58229F582E5833AF583E0225054
:10066B0006E92582F8E622BBFE06E92582F8E2229E
:0D067B00E58229F582E5833AF583E49322B8
:10068800BC000BBE0029EF8DF084FFADF022E4CC56
:10069800F875F008EF2FFFEE33FEEC33FCEE9DEC1F
:1006A800984005FCEE9DFE0FD5F0E9E4CEFD22ED65
:1006B800F8F5F0EE8420D21CFEADF075F008EF2FAF
:1006C800FFED33FD4007985006D5F0F222C398FDA0
:0506D8000FD5F0EA223D
:0E06DD00C3E49FFFE49EFEE49DFDE49CFC222E
:10110D00020F06E493A3F8E493A34003F68001F2E3
:10111D0008DFF48029E493A3F85407240CC8C333E3
:10112D00C4540F4420C8834004F456800146F6DFB2
:10113D00E4800B0102040810204080901468E47EC6
:10114D00019360BCA3FF543F30E509541FFEE493A7
:10115D00A360010ECF54C025E060A840B8E493A36E
:10116D00FAE493A3F8E493A3C8C582C8CAC583CA99
:10117D00F0A3C8C582C8CAC583CADFE9DEE780BE51
:011473000078
:00000001FF
